:1000000011C06AC069C068C067C066C065C064C00E
:1000100063C062C061C060C05FC05EC05DC00060A0
:100020000062800011241FBECFE5D2E0DEBFCDBF4D
:10003000EEE1F0E040E017C0B591A5913591259132
:10004000059107FD0CC095918591EF01F92FE82FDF
:1000500005900D92A217B307D9F7FE0104C01D92B7
:10006000A217B307E1F7E332F40731F703D000C07A
:04007000F894FFCF32
:1000740029D017BA87B3886087BB18BA10BE1FBCD3
:1000840083E38DBD80B7876880BF80B58B7F80BDDB
:1000940089B7806489BF8091600090916100883540
:1000A4009240C8F30FD010926100109260008FE369
:1000B40092E42FE0815090402040E1F700C000001E
:0400C40005D0E9CFAB
:0800C8008FB78F778FBF0895F9
:0800D0008FB780688FBF08950F
:0200D80093CFC4
:00000001FF
