:1000000011C07EC07DC061C07BC07AC079C078C09D
:1000100077C076C075C074C073C072C071C0006014
:100020000062800011241FBECFE5D2E0DEBFCDBF4D
:10003000EEE1F0E040E017C0B591A5913591259132
:10004000059107FD0CC095918591EF01F92FE82FDF
:1000500005900D92A217B307D9F7FE0104C01D92B7
:10006000A217B307E1F7E332F40731F703D000C07A
:04007000F894FFCF32
:10007400F89417BA87B3886087BB18BA10BE1FBC40
:100084008FE08DBD80B7866880BF89B7806489BFE3
:1000940078948091600090916100883A9146C8F309
:1000A400F89488B3877F88BB109261001092600037
:1000B4008FEB96EC2DE2815090402040E1F700C098
:0600C40000007894E6CF75
:1000CA001F920F920FB60F9211248F939F9398B39A
:1000DA0088E0892788BB8091600090916100019631
:1000EA0090936100809360009F918F910F900FBE53
:0600FA000F901F90189505
:020100007FCFAF
:00000001FF
