:1000000011C038C037C05FC035C034C033C032C043
:1000100031C030C02FC02EC02DC02CC02BC00060FE
:100020000062800011241FBECFE5D2E0DEBFCDBF4D
:10003000EEE1F0E040E017C0B591A5913591259132
:10004000059107FD0CC095918591EF01F92FE82FDF
:1000500005900D92A217B307D9F7FE0104C01D92B7
:10006000A217B307E1F7E332F40731F704D000C079
:04007000F894FFCF32
:02007400C5CFF6
:10007600F89417BABB9A18BA10BE1FBC8FE08DBD94
:1000860080B7866880BF89B7806489BF789480917D
:10009600600090916100883A9146C8F3F894C3983D
:1000A60010926100109260003FEF8CE291E321E034
:1000B6003150804090402040D9F700C00000E6CF84
:1000C6001F920F920FB60F9211248F939F9398B39E
:1000D60088E0892788BB8091600090916100019635
:1000E60090936100809360009F918F910F900FBE57
:0600F6000F901F90189509
:00000001FF
